{
  "abi": [
    {
      "inputs": [],
      "stateMutability": "nonpayable",
      "type": "constructor"
    },
    {
      "inputs": [],
      "name": "NotAnAdmin",
      "type": "error"
    },
    {
      "anonymous": false,
      "inputs": [
        {
          "indexed": true,
          "internalType": "address",
          "name": "owner",
          "type": "address"
        },
        {
          "indexed": true,
          "internalType": "address",
          "name": "spender",
          "type": "address"
        },
        {
          "indexed": false,
          "internalType": "uint256",
          "name": "value",
          "type": "uint256"
        }
      ],
      "name": "Approval",
      "type": "event"
    },
    {
      "anonymous": false,
      "inputs": [
        {
          "indexed": true,
          "internalType": "address",
          "name": "previousOwner",
          "type": "address"
        },
        {
          "indexed": true,
          "internalType": "address",
          "name": "newOwner",
          "type": "address"
        }
      ],
      "name": "OwnershipTransferred",
      "type": "event"
    },
    {
      "anonymous": false,
      "inputs": [
        {
          "indexed": true,
          "internalType": "address",
          "name": "from",
          "type": "address"
        },
        {
          "indexed": true,
          "internalType": "address",
          "name": "to",
          "type": "address"
        },
        {
          "indexed": false,
          "internalType": "uint256",
          "name": "value",
          "type": "uint256"
        }
      ],
      "name": "Transfer",
      "type": "event"
    },
    {
      "inputs": [
        {
          "internalType": "address",
          "name": "owner",
          "type": "address"
        },
        {
          "internalType": "address",
          "name": "spender",
          "type": "address"
        }
      ],
      "name": "allowance",
      "outputs": [
        {
          "internalType": "uint256",
          "name": "",
          "type": "uint256"
        }
      ],
      "stateMutability": "view",
      "type": "function"
    },
    {
      "inputs": [
        {
          "internalType": "address",
          "name": "spender",
          "type": "address"
        },
        {
          "internalType": "uint256",
          "name": "amount",
          "type": "uint256"
        }
      ],
      "name": "approve",
      "outputs": [
        {
          "internalType": "bool",
          "name": "",
          "type": "bool"
        }
      ],
      "stateMutability": "nonpayable",
      "type": "function"
    },
    {
      "inputs": [
        {
          "internalType": "address",
          "name": "account",
          "type": "address"
        }
      ],
      "name": "balanceOf",
      "outputs": [
        {
          "internalType": "uint256",
          "name": "",
          "type": "uint256"
        }
      ],
      "stateMutability": "view",
      "type": "function"
    },
    {
      "inputs": [
        {
          "internalType": "address[]",
          "name": "addresses",
          "type": "address[]"
        },
        {
          "internalType": "uint256[]",
          "name": "amounts",
          "type": "uint256[]"
        }
      ],
      "name": "bulkMint",
      "outputs": [],
      "stateMutability": "payable",
      "type": "function"
    },
    {
      "inputs": [
        {
          "internalType": "uint256",
          "name": "amount",
          "type": "uint256"
        }
      ],
      "name": "burn",
      "outputs": [],
      "stateMutability": "nonpayable",
      "type": "function"
    },
    {
      "inputs": [
        {
          "internalType": "address",
          "name": "account",
          "type": "address"
        },
        {
          "internalType": "uint256",
          "name": "amount",
          "type": "uint256"
        }
      ],
      "name": "burnFrom",
      "outputs": [],
      "stateMutability": "nonpayable",
      "type": "function"
    },
    {
      "inputs": [],
      "name": "decimals",
      "outputs": [
        {
          "internalType": "uint8",
          "name": "",
          "type": "uint8"
        }
      ],
      "stateMutability": "view",
      "type": "function"
    },
    {
      "inputs": [
        {
          "internalType": "address",
          "name": "spender",
          "type": "address"
        },
        {
          "internalType": "uint256",
          "name": "subtractedValue",
          "type": "uint256"
        }
      ],
      "name": "decreaseAllowance",
      "outputs": [
        {
          "internalType": "bool",
          "name": "",
          "type": "bool"
        }
      ],
      "stateMutability": "nonpayable",
      "type": "function"
    },
    {
      "inputs": [
        {
          "internalType": "address",
          "name": "spender",
          "type": "address"
        },
        {
          "internalType": "uint256",
          "name": "addedValue",
          "type": "uint256"
        }
      ],
      "name": "increaseAllowance",
      "outputs": [
        {
          "internalType": "bool",
          "name": "",
          "type": "bool"
        }
      ],
      "stateMutability": "nonpayable",
      "type": "function"
    },
    {
      "inputs": [
        {
          "internalType": "address",
          "name": "_addr",
          "type": "address"
        }
      ],
      "name": "isAdmin",
      "outputs": [
        {
          "internalType": "bool",
          "name": "",
          "type": "bool"
        }
      ],
      "stateMutability": "view",
      "type": "function"
    },
    {
      "inputs": [
        {
          "internalType": "address",
          "name": "to",
          "type": "address"
        },
        {
          "internalType": "uint256",
          "name": "amount",
          "type": "uint256"
        }
      ],
      "name": "mint",
      "outputs": [],
      "stateMutability": "nonpayable",
      "type": "function"
    },
    {
      "inputs": [],
      "name": "name",
      "outputs": [
        {
          "internalType": "string",
          "name": "",
          "type": "string"
        }
      ],
      "stateMutability": "view",
      "type": "function"
    },
    {
      "inputs": [],
      "name": "owner",
      "outputs": [
        {
          "internalType": "address",
          "name": "",
          "type": "address"
        }
      ],
      "stateMutability": "view",
      "type": "function"
    },
    {
      "inputs": [],
      "name": "renounceOwnership",
      "outputs": [],
      "stateMutability": "nonpayable",
      "type": "function"
    },
    {
      "inputs": [
        {
          "internalType": "address",
          "name": "_newAdmin",
          "type": "address"
        },
        {
          "internalType": "bool",
          "name": "_isAdmin",
          "type": "bool"
        }
      ],
      "name": "setAdmin",
      "outputs": [],
      "stateMutability": "nonpayable",
      "type": "function"
    },
    {
      "inputs": [],
      "name": "symbol",
      "outputs": [
        {
          "internalType": "string",
          "name": "",
          "type": "string"
        }
      ],
      "stateMutability": "view",
      "type": "function"
    },
    {
      "inputs": [],
      "name": "totalSupply",
      "outputs": [
        {
          "internalType": "uint256",
          "name": "",
          "type": "uint256"
        }
      ],
      "stateMutability": "view",
      "type": "function"
    },
    {
      "inputs": [
        {
          "internalType": "address",
          "name": "to",
          "type": "address"
        },
        {
          "internalType": "uint256",
          "name": "amount",
          "type": "uint256"
        }
      ],
      "name": "transfer",
      "outputs": [
        {
          "internalType": "bool",
          "name": "",
          "type": "bool"
        }
      ],
      "stateMutability": "nonpayable",
      "type": "function"
    },
    {
      "inputs": [
        {
          "internalType": "address",
          "name": "from",
          "type": "address"
        },
        {
          "internalType": "address",
          "name": "to",
          "type": "address"
        },
        {
          "internalType": "uint256",
          "name": "amount",
          "type": "uint256"
        }
      ],
      "name": "transfer",
      "outputs": [],
      "stateMutability": "nonpayable",
      "type": "function"
    },
    {
      "inputs": [
        {
          "internalType": "address",
          "name": "from",
          "type": "address"
        },
        {
          "internalType": "address",
          "name": "to",
          "type": "address"
        },
        {
          "internalType": "uint256",
          "name": "amount",
          "type": "uint256"
        }
      ],
      "name": "transferFrom",
      "outputs": [
        {
          "internalType": "bool",
          "name": "",
          "type": "bool"
        }
      ],
      "stateMutability": "nonpayable",
      "type": "function"
    },
    {
      "inputs": [
        {
          "internalType": "address",
          "name": "newOwner",
          "type": "address"
        }
      ],
      "name": "transferOwnership",
      "outputs": [],
      "stateMutability": "nonpayable",
      "type": "function"
    }
  ],
  "bytecode": {
    "object": "0x60806040523480156200001157600080fd5b5060405180604001604052806005815260200164536c696d6560d81b81525060405180604001604052806005815260200164534c494d4560d81b815250816003908051906020019062000066929190620000f5565b5080516200007c906004906020840190620000f5565b50505062000099620000936200009f60201b60201c565b620000a3565b620001d7565b3390565b600580546001600160a01b038381166001600160a01b0319831681179093556040519116919082907f8be0079c531659141344cd1fd0a4f28419497f9722a3daafe3b4186f6b6457e090600090a35050565b82805462000103906200019b565b90600052602060002090601f01602090048101928262000127576000855562000172565b82601f106200014257805160ff191683800117855562000172565b8280016001018555821562000172579182015b828111156200017257825182559160200191906001019062000155565b506200018092915062000184565b5090565b5b8082111562000180576000815560010162000185565b600181811c90821680620001b057607f821691505b602082108103620001d157634e487b7160e01b600052602260045260246000fd5b50919050565b61119380620001e76000396000f3fe60806040526004361061012a5760003560e01c80636ae459bd116100ab57806395d89b411161006f57806395d89b4114610346578063a457c2d71461035b578063a9059cbb1461037b578063beabacc81461039b578063dd62ed3e146103bb578063f2fde38b146103db57600080fd5b80636ae459bd146102a057806370a08231146102b3578063715018a6146102e957806379cc6790146102fe5780638da5cb5b1461031e57600080fd5b8063313ce567116100f2578063313ce56714610202578063395093511461021e57806340c10f191461023e57806342966c68146102605780634b0bddd21461028057600080fd5b806306fdde031461012f578063095ea7b31461015a57806318160ddd1461018a57806323b872dd146101a957806324d7806c146101c9575b600080fd5b34801561013b57600080fd5b506101446103fb565b6040516101519190610dd8565b60405180910390f35b34801561016657600080fd5b5061017a610175366004610e49565b61048d565b6040519015158152602001610151565b34801561019657600080fd5b506002545b604051908152602001610151565b3480156101b557600080fd5b5061017a6101c4366004610e73565b6104a5565b3480156101d557600080fd5b5061017a6101e4366004610eaf565b6001600160a01b031660009081526006602052604090205460ff1690565b34801561020e57600080fd5b5060405160128152602001610151565b34801561022a57600080fd5b5061017a610239366004610e49565b6104c9565b34801561024a57600080fd5b5061025e610259366004610e49565b6104eb565b005b34801561026c57600080fd5b5061025e61027b366004610ed1565b610542565b34801561028c57600080fd5b5061025e61029b366004610eea565b61054f565b61025e6102ae366004610ffc565b610582565b3480156102bf57600080fd5b5061019b6102ce366004610eaf565b6001600160a01b031660009081526020819052604090205490565b3480156102f557600080fd5b5061025e61062a565b34801561030a57600080fd5b5061025e610319366004610e49565b61063e565b34801561032a57600080fd5b506005546040516001600160a01b039091168152602001610151565b34801561035257600080fd5b50610144610653565b34801561036757600080fd5b5061017a610376366004610e49565b610662565b34801561038757600080fd5b5061017a610396366004610e49565b6106e2565b3480156103a757600080fd5b5061025e6103b6366004610e73565b6106f0565b3480156103c757600080fd5b5061019b6103d63660046110bc565b610744565b3480156103e757600080fd5b5061025e6103f6366004610eaf565b61076f565b60606003805461040a906110ef565b80601f0160208091040260200160405190810160405280929190818152602001828054610436906110ef565b80156104835780601f1061045857610100808354040283529160200191610483565b820191906000526020600020905b81548152906001019060200180831161046657829003601f168201915b5050505050905090565b60003361049b8185856107e5565b5060019392505050565b6000336104b3858285610909565b6104be858585610983565b506001949350505050565b60003361049b8185856104dc8383610744565b6104e6919061113f565b6107e5565b6005546001600160a01b0316331480159061051657503360009081526006602052604090205460ff16155b15610534576040516355098f2760e01b815260040160405180910390fd5b61053e8282610b27565b5050565b61054c3382610b31565b50565b610557610b3b565b6001600160a01b03919091166000908152600660205260409020805460ff1916911515919091179055565b6005546001600160a01b031633148015906105ad57503360009081526006602052604090205460ff16155b156105cb576040516355098f2760e01b815260040160405180910390fd5b60005b8251811015610625576106138382815181106105ec576105ec611157565b602002602001015183838151811061060657610606611157565b6020026020010151610b27565b8061061d8161116d565b9150506105ce565b505050565b610632610b3b565b61063c6000610b95565b565b610649823383610909565b61053e8282610b31565b60606004805461040a906110ef565b600033816106708286610744565b9050838110156106d55760405162461bcd60e51b815260206004820152602560248201527f45524332303a2064656372656173656420616c6c6f77616e63652062656c6f77604482015264207a65726f60d81b60648201526084015b60405180910390fd5b6104be82868684036107e5565b60003361049b818585610983565b6005546001600160a01b0316331480159061071b57503360009081526006602052604090205460ff16155b15610739576040516355098f2760e01b815260040160405180910390fd5b610625838383610983565b6001600160a01b03918216600090815260016020908152604080832093909416825291909152205490565b610777610b3b565b6001600160a01b0381166107dc5760405162461bcd60e51b815260206004820152602660248201527f4f776e61626c653a206e6577206f776e657220697320746865207a65726f206160448201526564647265737360d01b60648201526084016106cc565b61054c81610b95565b6001600160a01b0383166108475760405162461bcd60e51b8152602060048201526024808201527f45524332303a20617070726f76652066726f6d20746865207a65726f206164646044820152637265737360e01b60648201526084016106cc565b6001600160a01b0382166108a85760405162461bcd60e51b815260206004820152602260248201527f45524332303a20617070726f766520746f20746865207a65726f206164647265604482015261737360f01b60648201526084016106cc565b6001600160a01b0383811660008181526001602090815260408083209487168084529482529182902085905590518481527f8c5be1e5ebec7d5bd14f71427d1e84f3dd0314c0f7b2291e5b200ac8c7c3b925910160405180910390a3505050565b60006109158484610744565b9050600019811461097d57818110156109705760405162461bcd60e51b815260206004820152601d60248201527f45524332303a20696e73756666696369656e7420616c6c6f77616e636500000060448201526064016106cc565b61097d84848484036107e5565b50505050565b6001600160a01b0383166109e75760405162461bcd60e51b815260206004820152602560248201527f45524332303a207472616e736665722066726f6d20746865207a65726f206164604482015264647265737360d81b60648201526084016106cc565b6001600160a01b038216610a495760405162461bcd60e51b815260206004820152602360248201527f45524332303a207472616e7366657220746f20746865207a65726f206164647260448201526265737360e81b60648201526084016106cc565b6001600160a01b03831660009081526020819052604090205481811015610ac15760405162461bcd60e51b815260206004820152602660248201527f45524332303a207472616e7366657220616d6f756e7420657863656564732062604482015265616c616e636560d01b60648201526084016106cc565b6001600160a01b03848116600081815260208181526040808320878703905593871680835291849020805487019055925185815290927fddf252ad1be2c89b69c2b068fc378daa952ba7f163c4a11628f55a4df523b3ef910160405180910390a361097d565b61053e8282610be7565b61053e8282610ca6565b6005546001600160a01b0316331461063c5760405162461bcd60e51b815260206004820181905260248201527f4f776e61626c653a2063616c6c6572206973206e6f7420746865206f776e657260448201526064016106cc565b600580546001600160a01b038381166001600160a01b0319831681179093556040519116919082907f8be0079c531659141344cd1fd0a4f28419497f9722a3daafe3b4186f6b6457e090600090a35050565b6001600160a01b038216610c3d5760405162461bcd60e51b815260206004820152601f60248201527f45524332303a206d696e7420746f20746865207a65726f20616464726573730060448201526064016106cc565b8060026000828254610c4f919061113f565b90915550506001600160a01b038216600081815260208181526040808320805486019055518481527fddf252ad1be2c89b69c2b068fc378daa952ba7f163c4a11628f55a4df523b3ef910160405180910390a35050565b6001600160a01b038216610d065760405162461bcd60e51b815260206004820152602160248201527f45524332303a206275726e2066726f6d20746865207a65726f206164647265736044820152607360f81b60648201526084016106cc565b6001600160a01b03821660009081526020819052604090205481811015610d7a5760405162461bcd60e51b815260206004820152602260248201527f45524332303a206275726e20616d6f756e7420657863656564732062616c616e604482015261636560f01b60648201526084016106cc565b6001600160a01b0383166000818152602081815260408083208686039055600280548790039055518581529192917fddf252ad1be2c89b69c2b068fc378daa952ba7f163c4a11628f55a4df523b3ef910160405180910390a3505050565b600060208083528351808285015260005b81811015610e0557858101830151858201604001528201610de9565b81811115610e17576000604083870101525b50601f01601f1916929092016040019392505050565b80356001600160a01b0381168114610e4457600080fd5b919050565b60008060408385031215610e5c57600080fd5b610e6583610e2d565b946020939093013593505050565b600080600060608486031215610e8857600080fd5b610e9184610e2d565b9250610e9f60208501610e2d565b9150604084013590509250925092565b600060208284031215610ec157600080fd5b610eca82610e2d565b9392505050565b600060208284031215610ee357600080fd5b5035919050565b60008060408385031215610efd57600080fd5b610f0683610e2d565b915060208301358015158114610f1b57600080fd5b809150509250929050565b634e487b7160e01b600052604160045260246000fd5b604051601f8201601f1916810167ffffffffffffffff81118282101715610f6557610f65610f26565b604052919050565b600067ffffffffffffffff821115610f8757610f87610f26565b5060051b60200190565b600082601f830112610fa257600080fd5b81356020610fb7610fb283610f6d565b610f3c565b82815260059290921b84018101918181019086841115610fd657600080fd5b8286015b84811015610ff15780358352918301918301610fda565b509695505050505050565b6000806040838503121561100f57600080fd5b823567ffffffffffffffff8082111561102757600080fd5b818501915085601f83011261103b57600080fd5b8135602061104b610fb283610f6d565b82815260059290921b8401810191818101908984111561106a57600080fd5b948201945b8386101561108f5761108086610e2d565b8252948201949082019061106f565b965050860135925050808211156110a557600080fd5b506110b285828601610f91565b9150509250929050565b600080604083850312156110cf57600080fd5b6110d883610e2d565b91506110e660208401610e2d565b90509250929050565b600181811c9082168061110357607f821691505b60208210810361112357634e487b7160e01b600052602260045260246000fd5b50919050565b634e487b7160e01b600052601160045260246000fd5b6000821982111561115257611152611129565b500190565b634e487b7160e01b600052603260045260246000fd5b60006001820161117f5761117f611129565b506001019056fea164736f6c634300080d000a",
    "linkReferences": {}
  },
  "methodIdentifiers": {
    "allowance(address,address)": "dd62ed3e",
    "approve(address,uint256)": "095ea7b3",
    "balanceOf(address)": "70a08231",
    "bulkMint(address[],uint256[])": "6ae459bd",
    "burn(uint256)": "42966c68",
    "burnFrom(address,uint256)": "79cc6790",
    "decimals()": "313ce567",
    "decreaseAllowance(address,uint256)": "a457c2d7",
    "increaseAllowance(address,uint256)": "39509351",
    "isAdmin(address)": "24d7806c",
    "mint(address,uint256)": "40c10f19",
    "name()": "06fdde03",
    "owner()": "8da5cb5b",
    "renounceOwnership()": "715018a6",
    "setAdmin(address,bool)": "4b0bddd2",
    "symbol()": "95d89b41",
    "totalSupply()": "18160ddd",
    "transfer(address,address,uint256)": "beabacc8",
    "transfer(address,uint256)": "a9059cbb",
    "transferFrom(address,address,uint256)": "23b872dd",
    "transferOwnership(address)": "f2fde38b"
  },
  "id": 29
}