{
  "abi": [
    {
      "inputs": [
        {
          "internalType": "address",
          "name": "slimeAddress_",
          "type": "address"
        }
      ],
      "stateMutability": "nonpayable",
      "type": "constructor"
    },
    {
      "anonymous": false,
      "inputs": [
        {
          "indexed": true,
          "internalType": "address",
          "name": "previousOwner",
          "type": "address"
        },
        {
          "indexed": true,
          "internalType": "address",
          "name": "newOwner",
          "type": "address"
        }
      ],
      "name": "OwnershipTransferred",
      "type": "event"
    },
    {
      "anonymous": false,
      "inputs": [
        {
          "indexed": false,
          "internalType": "uint32",
          "name": "tokenId",
          "type": "uint32"
        },
        {
          "indexed": false,
          "internalType": "uint256",
          "name": "amount",
          "type": "uint256"
        },
        {
          "indexed": false,
          "internalType": "address",
          "name": "from",
          "type": "address"
        }
      ],
      "name": "SlimePooled",
      "type": "event"
    },
    {
      "inputs": [
        {
          "internalType": "uint32",
          "name": "tokenId",
          "type": "uint32"
        }
      ],
      "name": "getCoordinates",
      "outputs": [
        {
          "internalType": "uint32",
          "name": "",
          "type": "uint32"
        },
        {
          "internalType": "uint32",
          "name": "",
          "type": "uint32"
        }
      ],
      "stateMutability": "pure",
      "type": "function"
    },
    {
      "inputs": [],
      "name": "mostSlimed",
      "outputs": [
        {
          "internalType": "uint32",
          "name": "",
          "type": "uint32"
        }
      ],
      "stateMutability": "view",
      "type": "function"
    },
    {
      "inputs": [],
      "name": "owner",
      "outputs": [
        {
          "internalType": "address",
          "name": "",
          "type": "address"
        }
      ],
      "stateMutability": "view",
      "type": "function"
    },
    {
      "inputs": [
        {
          "internalType": "uint32",
          "name": "tokenId",
          "type": "uint32"
        },
        {
          "internalType": "uint32",
          "name": "slimeAmount",
          "type": "uint32"
        }
      ],
      "name": "poolSlime",
      "outputs": [],
      "stateMutability": "nonpayable",
      "type": "function"
    },
    {
      "inputs": [],
      "name": "renounceOwnership",
      "outputs": [],
      "stateMutability": "nonpayable",
      "type": "function"
    },
    {
      "inputs": [
        {
          "internalType": "uint32",
          "name": "",
          "type": "uint32"
        }
      ],
      "name": "slimePools",
      "outputs": [
        {
          "internalType": "uint256",
          "name": "",
          "type": "uint256"
        }
      ],
      "stateMutability": "view",
      "type": "function"
    },
    {
      "inputs": [
        {
          "internalType": "address",
          "name": "newOwner",
          "type": "address"
        }
      ],
      "name": "transferOwnership",
      "outputs": [],
      "stateMutability": "nonpayable",
      "type": "function"
    }
  ],
  "bytecode": {
    "object": "0x608060405234801561001057600080fd5b5060405161057838038061057883398101604081905261002f916100ad565b6100383361005d565b600180546001600160a01b0319166001600160a01b03929092169190911790556100dd565b600080546001600160a01b038381166001600160a01b0319831681178455604051919092169283917f8be0079c531659141344cd1fd0a4f28419497f9722a3daafe3b4186f6b6457e09190a35050565b6000602082840312156100bf57600080fd5b81516001600160a01b03811681146100d657600080fd5b9392505050565b61048c806100ec6000396000f3fe608060405234801561001057600080fd5b506004361061007d5760003560e01c806394c0d8a51161005b57806394c0d8a5146100da5780639f7b9de5146100ff578063e1e1e13514610112578063f2fde38b1461014c57600080fd5b80633a569a2914610082578063715018a6146100b55780638da5cb5b146100bf575b600080fd5b6100a26100903660046103db565b60026020526000908152604090205481565b6040519081526020015b60405180910390f35b6100bd61015f565b005b6000546040516001600160a01b0390911681526020016100ac565b6003546100ea9063ffffffff1681565b60405163ffffffff90911681526020016100ac565b6100bd61010d3660046103fd565b610173565b61012f6101203660046103db565b60ff600882901c811692911690565b6040805163ffffffff9384168152929091166020830152016100ac565b6100bd61015a366004610430565b61029a565b610167610318565b6101716000610372565b565b6001546040516317d5759960e31b815233600482015230602482015263ffffffff831660448201526001600160a01b039091169063beabacc890606401600060405180830381600087803b1580156101ca57600080fd5b505af11580156101de573d6000803e3d6000fd5b5050505063ffffffff828116600090815260026020526040812080549284169290919061020c908490610459565b90915550506040805163ffffffff848116825283166020820152338183015290517f4303fb09aad563ae1ffacfe557553d862645e4874e8bc918de7f9622fc3fcabd9181900360600190a163ffffffff8083166000908152600260205260408082205460035490931682529020541015610296576003805463ffffffff191663ffffffff84161790555b5050565b6102a2610318565b6001600160a01b03811661030c5760405162461bcd60e51b815260206004820152602660248201527f4f776e61626c653a206e6577206f776e657220697320746865207a65726f206160448201526564647265737360d01b60648201526084015b60405180910390fd5b61031581610372565b50565b6000546001600160a01b031633146101715760405162461bcd60e51b815260206004820181905260248201527f4f776e61626c653a2063616c6c6572206973206e6f7420746865206f776e65726044820152606401610303565b600080546001600160a01b038381166001600160a01b0319831681178455604051919092169283917f8be0079c531659141344cd1fd0a4f28419497f9722a3daafe3b4186f6b6457e09190a35050565b803563ffffffff811681146103d657600080fd5b919050565b6000602082840312156103ed57600080fd5b6103f6826103c2565b9392505050565b6000806040838503121561041057600080fd5b610419836103c2565b9150610427602084016103c2565b90509250929050565b60006020828403121561044257600080fd5b81356001600160a01b03811681146103f657600080fd5b6000821982111561047a57634e487b7160e01b600052601160045260246000fd5b50019056fea164736f6c634300080d000a",
    "linkReferences": {}
  },
  "methodIdentifiers": {
    "getCoordinates(uint32)": "e1e1e135",
    "mostSlimed()": "94c0d8a5",
    "owner()": "8da5cb5b",
    "poolSlime(uint32,uint32)": "9f7b9de5",
    "renounceOwnership()": "715018a6",
    "slimePools(uint32)": "3a569a29",
    "transferOwnership(address)": "f2fde38b"
  },
  "id": 30
}